{
  "contractName": "TestCrowdsaleController",
  "abi": [
    {
      "constant": true,
      "inputs": [],
      "name": "PRESALE_MIN_CONTRIBUTION",
      "outputs": [
        {
          "name": "",
          "type": "uint256"
        }
      ],
      "payable": false,
      "stateMutability": "view",
      "type": "function"
    },
    {
      "constant": false,
      "inputs": [
        {
          "name": "_contributor",
          "type": "address"
        },
        {
          "name": "_amount",
          "type": "uint256"
        }
      ],
      "name": "contributeFiat",
      "outputs": [
        {
          "name": "amount",
          "type": "uint256"
        }
      ],
      "payable": true,
      "stateMutability": "payable",
      "type": "function"
    },
    {
      "constant": true,
      "inputs": [],
      "name": "TOKEN_PRICE_D",
      "outputs": [
        {
          "name": "",
          "type": "uint256"
        }
      ],
      "payable": false,
      "stateMutability": "view",
      "type": "function"
    },
    {
      "constant": true,
      "inputs": [],
      "name": "TOKEN_SYM",
      "outputs": [
        {
          "name": "",
          "type": "string"
        }
      ],
      "payable": false,
      "stateMutability": "view",
      "type": "function"
    },
    {
      "constant": true,
      "inputs": [],
      "name": "TOKEN_DEC",
      "outputs": [
        {
          "name": "",
          "type": "uint8"
        }
      ],
      "payable": false,
      "stateMutability": "view",
      "type": "function"
    },
    {
      "constant": false,
      "inputs": [],
      "name": "contributeETH",
      "outputs": [
        {
          "name": "amount",
          "type": "uint256"
        }
      ],
      "payable": true,
      "stateMutability": "payable",
      "type": "function"
    },
    {
      "constant": true,
      "inputs": [],
      "name": "TOKEN_NAME",
      "outputs": [
        {
          "name": "",
          "type": "string"
        }
      ],
      "payable": false,
      "stateMutability": "view",
      "type": "function"
    },
    {
      "constant": true,
      "inputs": [],
      "name": "DURATION",
      "outputs": [
        {
          "name": "",
          "type": "uint256"
        }
      ],
      "payable": false,
      "stateMutability": "view",
      "type": "function"
    },
    {
      "constant": true,
      "inputs": [],
      "name": "numOfContributors",
      "outputs": [
        {
          "name": "",
          "type": "uint256"
        }
      ],
      "payable": false,
      "stateMutability": "view",
      "type": "function"
    },
    {
      "constant": true,
      "inputs": [
        {
          "name": "_contribution",
          "type": "uint256"
        }
      ],
      "name": "computeReturn",
      "outputs": [
        {
          "name": "",
          "type": "uint256"
        }
      ],
      "payable": false,
      "stateMutability": "view",
      "type": "function"
    },
    {
      "constant": false,
      "inputs": [
        {
          "name": "_newOwner",
          "type": "address"
        }
      ],
      "name": "transferTokenOwnership",
      "outputs": [],
      "payable": false,
      "stateMutability": "nonpayable",
      "type": "function"
    },
    {
      "constant": true,
      "inputs": [],
      "name": "TOTAL_ETHER_SOFT_CAP",
      "outputs": [
        {
          "name": "",
          "type": "uint256"
        }
      ],
      "payable": false,
      "stateMutability": "view",
      "type": "function"
    },
    {
      "constant": true,
      "inputs": [],
      "name": "endTime",
      "outputs": [
        {
          "name": "",
          "type": "uint256"
        }
      ],
      "payable": false,
      "stateMutability": "view",
      "type": "function"
    },
    {
      "constant": true,
      "inputs": [
        {
          "name": "",
          "type": "address"
        }
      ],
      "name": "whiteList",
      "outputs": [
        {
          "name": "",
          "type": "bool"
        }
      ],
      "payable": false,
      "stateMutability": "view",
      "type": "function"
    },
    {
      "constant": false,
      "inputs": [],
      "name": "acceptTokenOwnership",
      "outputs": [],
      "payable": false,
      "stateMutability": "nonpayable",
      "type": "function"
    },
    {
      "constant": true,
      "inputs": [],
      "name": "beneficiary",
      "outputs": [
        {
          "name": "",
          "type": "address"
        }
      ],
      "payable": false,
      "stateMutability": "view",
      "type": "function"
    },
    {
      "constant": false,
      "inputs": [],
      "name": "unpause",
      "outputs": [
        {
          "name": "",
          "type": "bool"
        }
      ],
      "payable": false,
      "stateMutability": "nonpayable",
      "type": "function"
    },
    {
      "constant": false,
      "inputs": [
        {
          "name": "_token",
          "type": "address"
        },
        {
          "name": "_to",
          "type": "address"
        },
        {
          "name": "_amount",
          "type": "uint256"
        }
      ],
      "name": "withdrawFromToken",
      "outputs": [],
      "payable": false,
      "stateMutability": "nonpayable",
      "type": "function"
    },
    {
      "constant": true,
      "inputs": [],
      "name": "newManager",
      "outputs": [
        {
          "name": "",
          "type": "address"
        }
      ],
      "payable": false,
      "stateMutability": "view",
      "type": "function"
    },
    {
      "constant": true,
      "inputs": [],
      "name": "TOKEN_PRICE_N",
      "outputs": [
        {
          "name": "",
          "type": "uint256"
        }
      ],
      "payable": false,
      "stateMutability": "view",
      "type": "function"
    },
    {
      "constant": true,
      "inputs": [],
      "name": "manager",
      "outputs": [
        {
          "name": "",
          "type": "address"
        }
      ],
      "payable": false,
      "stateMutability": "view",
      "type": "function"
    },
    {
      "constant": false,
      "inputs": [],
      "name": "contributePreSale",
      "outputs": [
        {
          "name": "amount",
          "type": "uint256"
        }
      ],
      "payable": true,
      "stateMutability": "payable",
      "type": "function"
    },
    {
      "constant": true,
      "inputs": [],
      "name": "paused",
      "outputs": [
        {
          "name": "",
          "type": "bool"
        }
      ],
      "payable": false,
      "stateMutability": "view",
      "type": "function"
    },
    {
      "constant": true,
      "inputs": [],
      "name": "SOFTCAP_GRACE_DURATION",
      "outputs": [
        {
          "name": "",
          "type": "uint256"
        }
      ],
      "payable": false,
      "stateMutability": "view",
      "type": "function"
    },
    {
      "constant": false,
      "inputs": [
        {
          "name": "_token",
          "type": "address"
        },
        {
          "name": "_to",
          "type": "address"
        },
        {
          "name": "_amount",
          "type": "uint256"
        }
      ],
      "name": "withdrawTokens",
      "outputs": [],
      "payable": false,
      "stateMutability": "nonpayable",
      "type": "function"
    },
    {
      "constant": true,
      "inputs": [],
      "name": "TOTAL_ETHER_CAP",
      "outputs": [
        {
          "name": "",
          "type": "uint256"
        }
      ],
      "payable": false,
      "stateMutability": "view",
      "type": "function"
    },
    {
      "constant": true,
      "inputs": [],
      "name": "startTime",
      "outputs": [
        {
          "name": "",
          "type": "uint256"
        }
      ],
      "payable": false,
      "stateMutability": "view",
      "type": "function"
    },
    {
      "constant": false,
      "inputs": [],
      "name": "acceptOwnership",
      "outputs": [],
      "payable": false,
      "stateMutability": "nonpayable",
      "type": "function"
    },
    {
      "constant": false,
      "inputs": [],
      "name": "pause",
      "outputs": [
        {
          "name": "",
          "type": "bool"
        }
      ],
      "payable": false,
      "stateMutability": "nonpayable",
      "type": "function"
    },
    {
      "constant": false,
      "inputs": [
        {
          "name": "_disable",
          "type": "bool"
        }
      ],
      "name": "disableTokenTransfers",
      "outputs": [],
      "payable": false,
      "stateMutability": "nonpayable",
      "type": "function"
    },
    {
      "constant": false,
      "inputs": [
        {
          "name": "_address",
          "type": "address"
        }
      ],
      "name": "removeFromWhitelist",
      "outputs": [
        {
          "name": "added",
          "type": "bool"
        }
      ],
      "payable": false,
      "stateMutability": "nonpayable",
      "type": "function"
    },
    {
      "constant": true,
      "inputs": [],
      "name": "owner",
      "outputs": [
        {
          "name": "",
          "type": "address"
        }
      ],
      "payable": false,
      "stateMutability": "view",
      "type": "function"
    },
    {
      "constant": true,
      "inputs": [],
      "name": "PRESALE_DURATION",
      "outputs": [
        {
          "name": "",
          "type": "uint256"
        }
      ],
      "payable": false,
      "stateMutability": "view",
      "type": "function"
    },
    {
      "constant": true,
      "inputs": [],
      "name": "MAX_CONTRIBUTION",
      "outputs": [
        {
          "name": "",
          "type": "uint256"
        }
      ],
      "payable": false,
      "stateMutability": "view",
      "type": "function"
    },
    {
      "constant": true,
      "inputs": [],
      "name": "totalEtherContributed",
      "outputs": [
        {
          "name": "",
          "type": "uint256"
        }
      ],
      "payable": false,
      "stateMutability": "view",
      "type": "function"
    },
    {
      "constant": false,
      "inputs": [],
      "name": "acceptManagement",
      "outputs": [],
      "payable": false,
      "stateMutability": "nonpayable",
      "type": "function"
    },
    {
      "constant": true,
      "inputs": [],
      "name": "newOwner",
      "outputs": [
        {
          "name": "",
          "type": "address"
        }
      ],
      "payable": false,
      "stateMutability": "view",
      "type": "function"
    },
    {
      "constant": true,
      "inputs": [],
      "name": "MAX_GAS_PRICE",
      "outputs": [
        {
          "name": "",
          "type": "uint256"
        }
      ],
      "payable": false,
      "stateMutability": "view",
      "type": "function"
    },
    {
      "constant": false,
      "inputs": [
        {
          "name": "_address",
          "type": "address"
        }
      ],
      "name": "addToWhitelist",
      "outputs": [
        {
          "name": "added",
          "type": "bool"
        }
      ],
      "payable": false,
      "stateMutability": "nonpayable",
      "type": "function"
    },
    {
      "constant": false,
      "inputs": [
        {
          "name": "_newManager",
          "type": "address"
        }
      ],
      "name": "transferManagement",
      "outputs": [],
      "payable": false,
      "stateMutability": "nonpayable",
      "type": "function"
    },
    {
      "constant": false,
      "inputs": [
        {
          "name": "_newOwner",
          "type": "address"
        }
      ],
      "name": "transferOwnership",
      "outputs": [],
      "payable": false,
      "stateMutability": "nonpayable",
      "type": "function"
    },
    {
      "constant": true,
      "inputs": [],
      "name": "token",
      "outputs": [
        {
          "name": "",
          "type": "address"
        }
      ],
      "payable": false,
      "stateMutability": "view",
      "type": "function"
    },
    {
      "inputs": [
        {
          "name": "_startTime",
          "type": "uint256"
        },
        {
          "name": "_beneficiary",
          "type": "address"
        },
        {
          "name": "_startTimeOverride",
          "type": "uint256"
        }
      ],
      "payable": false,
      "stateMutability": "nonpayable",
      "type": "constructor"
    },
    {
      "payable": true,
      "stateMutability": "payable",
      "type": "fallback"
    },
    {
      "anonymous": false,
      "inputs": [
        {
          "indexed": true,
          "name": "_contributor",
          "type": "address"
        },
        {
          "indexed": false,
          "name": "_amount",
          "type": "uint256"
        },
        {
          "indexed": false,
          "name": "_return",
          "type": "uint256"
        }
      ],
      "name": "Contribution",
      "type": "event"
    },
    {
      "anonymous": false,
      "inputs": [],
      "name": "Pause",
      "type": "event"
    },
    {
      "anonymous": false,
      "inputs": [],
      "name": "Unpause",
      "type": "event"
    },
    {
      "anonymous": false,
      "inputs": [
        {
          "indexed": false,
          "name": "_prevManager",
          "type": "address"
        },
        {
          "indexed": false,
          "name": "_newManager",
          "type": "address"
        }
      ],
      "name": "ManagerUpdate",
      "type": "event"
    },
    {
      "anonymous": false,
      "inputs": [
        {
          "indexed": false,
          "name": "_prevOwner",
          "type": "address"
        },
        {
          "indexed": false,
          "name": "_newOwner",
          "type": "address"
        }
      ],
      "name": "OwnerUpdate",
      "type": "event"
    }
  ],
  "bytecode": "0x60606040526004805460a060020a60ff021916905569174b1ca8ab05a8c0000060055569152d02c7e14af68000006006556000600781905560088190556009819055600a8054600160a060020a0319169055600c5534156200006057600080fd5b60405160608062002867833981016040528080519190602001805191906020018051915083905082604080519081016040908152600882527f526f6f74636f696e00000000000000000000000000000000000000000000000060208301528051908101604052600381527f524354000000000000000000000000000000000000000000000000000000000060208201526012620000fc6200032c565b60ff82166040820152606080825281906020820190820186818151815260200191508051906020019080838360005b83811015620001455780820151838201526020016200012b565b50505050905090810190601f168015620001735780820380516001836020036101000a031916815260200191505b50838103825285818151815260200191508051906020019080838360005b83811015620001ab57808201518382015260200162000191565b50505050905090810190601f168015620001d95780820380516001836020036101000a031916815260200191505b5095505050505050604051809103906000f0801515620001f857600080fd5b60008054600160a060020a03191633600160a060020a03908116919091179091558190811615156200022957600080fd5b5060028054600160a060020a0319908116600160a060020a0393841617909155600380549091163383161790558190811615156200026657600080fd5b82428190106200027257fe5b6007849055621275008401600855600a8054600160a060020a031916600160a060020a038581169190911790915560025416631608f18f60016040517c010000000000000000000000000000000000000000000000000000000063ffffffff84160281529015156004820152602401600060405180830381600087803b1515620002fb57600080fd5b6102c65a03f115156200030d57600080fd5b505050600785905550505062127500909101600855506200033d915050565b60405161108680620017e183390190565b611494806200034d6000396000f300606060405236156101e85763ffffffff60e060020a600035041663066d2d6281146101f3578063098eb040146102185780630d2806ad1461022f57806310142dd91461024257806316ec2d87146102cc578063175323a8146102f557806318821400146102fd5780631be05289146103105780631e206f15146103235780631fc3a5191461033657806321e6b53d1461034c578063263b71b21461036d5780633197cbb614610380578063372c12b11461039357806338a5e016146103c657806338af3eed146103d95780633f4ba83a1461040857806341a5b33d1461041b578063429060291461044357806345cfad3e14610456578063481c6a751461046957806359d213fe1461047c5780635c975abb146104845780635d4e67de146104975780635e35359e146104aa5780636a72a4d7146104d257806378e97925146104e557806379ba5097146104f85780638456cb591461050b57806385d5e6311461051e5780638ab1d681146105365780638da5cb5b14610555578063945e40131461031057806394d95f8f14610568578063b591fc691461057b578063c8c2fe6c1461058e578063d4ee1d90146105a1578063e3bbb4f1146105b4578063e43252d7146105c7578063e4edf852146105e6578063f2fde38b14610605578063fc0c546a14610624575b6101f0610637565b50005b34156101fe57600080fd5b610206610751565b60405190815260200160405180910390f35b610206600160a060020a036004351660243561075e565b341561023a57600080fd5b61020661090a565b341561024d57600080fd5b610255610910565b60405160208082528190810183818151815260200191508051906020019080838360005b83811015610291578082015183820152602001610279565b50505050905090810190601f1680156102be5780820380516001836020036101000a031916815260200191505b509250505060405180910390f35b34156102d757600080fd5b6102df610947565b60405160ff909116815260200160405180910390f35b610206610637565b341561030857600080fd5b61025561094c565b341561031b57600080fd5b610206610983565b341561032e57600080fd5b61020661098a565b341561034157600080fd5b610206600435610990565b341561035757600080fd5b61036b600160a060020a03600435166109b0565b005b341561037857600080fd5b610206610a2f565b341561038b57600080fd5b610206610a35565b341561039e57600080fd5b6103b2600160a060020a0360043516610a3b565b604051901515815260200160405180910390f35b34156103d157600080fd5b61036b610a50565b34156103e457600080fd5b6103ec610abd565b604051600160a060020a03909116815260200160405180910390f35b341561041357600080fd5b6103b2610acc565b341561042657600080fd5b61036b600160a060020a0360043581169060243516604435610b4f565b341561044e57600080fd5b6103ec610be3565b341561046157600080fd5b610206610bf2565b341561047457600080fd5b6103ec610bf7565b610206610c06565b341561048f57600080fd5b6103b2610c88565b34156104a257600080fd5b610206610c98565b34156104b557600080fd5b61036b600160a060020a0360043581169060243516604435610c9d565b34156104dd57600080fd5b610206610d83565b34156104f057600080fd5b610206610d89565b341561050357600080fd5b61036b610d8f565b341561051657600080fd5b6103b2610e36565b341561052957600080fd5b61036b6004351515610ebe565b341561054157600080fd5b6103b2600160a060020a0360043516610f1e565b341561056057600080fd5b6103ec610f5e565b341561057357600080fd5b610206610f6d565b341561058657600080fd5b610206610f7a565b341561059957600080fd5b61036b610f80565b34156105ac57600080fd5b6103ec611027565b34156105bf57600080fd5b610206611036565b34156105d257600080fd5b6103b2600160a060020a036004351661103f565b34156105f157600080fd5b61036b600160a060020a0360043516611083565b341561061057600080fd5b61036b600160a060020a03600435166110e5565b341561062f57600080fd5b6103ec611147565b600060075460085481421015801561064e57508042105b151561065657fe5b60045460a060020a900460ff161561066d57600080fd5b60025468022b1c8c1227a00000906107109034906103e89061070190600160a060020a03166370a082313360006040516020015260405160e060020a63ffffffff8416028152600160a060020a039091166004820152602401602060405180830381600087803b15156106df57600080fd5b6102c65a03f115156106f057600080fd5b505050604051805190506001611156565b81151561070a57fe5b04611181565b11158061073a5750600160a060020a0333166000908152600b602052604090205460ff1615156001145b151561074257fe5b61074a611190565b9250505090565b680ad78ebc5ac620000081565b600354600090819033600160a060020a0390811691161461077b57fe5b61078a600754621275006113cd565b61079960075462127500611181565b8142101580156107a857508042105b15156107b057fe5b60045460a060020a900460ff16156107c757600080fd5b6107d085610990565b92506107de60095486611181565b600955600254600160a060020a031663867904b4878560405160e060020a63ffffffff8516028152600160a060020a0390921660048301526024820152604401600060405180830381600087803b151561083757600080fd5b6102c65a03f1151561084857600080fd5b5050600254600a54600160a060020a03918216925063867904b491168560405160e060020a63ffffffff8516028152600160a060020a0390921660048301526024820152604401600060405180830381600087803b15156108a857600080fd5b6102c65a03f115156108b957600080fd5b50505085600160a060020a03167f5f7675b09617d2c9fa4fd13058ee5877a9538f626b0308816736e83748a45040348560405191825260208201526040908101905180910390a25090949350505050565b6103e881565b60408051908101604052600381527f5243540000000000000000000000000000000000000000000000000000000000602082015281565b601281565b60408051908101604052600881527f526f6f74636f696e000000000000000000000000000000000000000000000000602082015281565b6212750081565b600c5481565b600060016109a0836103e8611156565b8115156109a957fe5b0492915050565b60005433600160a060020a039081169116146109c857fe5b600254600160a060020a031663f2fde38b8260405160e060020a63ffffffff8416028152600160a060020a039091166004820152602401600060405180830381600087803b1515610a1857600080fd5b6102c65a03f11515610a2957600080fd5b50505050565b60065481565b60085481565b600b6020526000908152604090205460ff1681565b60005433600160a060020a03908116911614610a6857fe5b600254600160a060020a03166379ba50976040518163ffffffff1660e060020a028152600401600060405180830381600087803b1515610aa757600080fd5b6102c65a03f11515610ab857600080fd5b505050565b600a54600160a060020a031681565b60035460009033600160a060020a03908116911614610ae757fe5b60045460a060020a900460ff161515610aff57600080fd5b6004805474ff0000000000000000000000000000000000000000191690557f7805862f689e2f13df9f062ff482ad3ad112aca9e0847911ed832e158c525b3360405160405180910390a150600190565b60005433600160a060020a03908116911614610b6757fe5b600254600160a060020a0316635e35359e84848460405160e060020a63ffffffff8616028152600160a060020a0393841660048201529190921660248201526044810191909152606401600060405180830381600087803b1515610bca57600080fd5b6102c65a03f11515610bdb57600080fd5b505050505050565b600454600160a060020a031681565b600181565b600354600160a060020a031681565b6000610c17600754621275006113cd565b600754814210158015610c2957508042105b1515610c3157fe5b60045460a060020a900460ff1615610c4857600080fd5b680ad78ebc5ac6200000341015610c5e57600080fd5b600160a060020a0333166000908152600b602052604090205460ff16151560011461074257600080fd5b60045460a060020a900460ff1681565b600a81565b60005433600160a060020a03908116911614610cb557fe5b82600160a060020a0381161515610ccb57600080fd5b82600160a060020a0381161515610ce157600080fd5b8330600160a060020a031681600160a060020a031614151515610d0357600080fd5b85600160a060020a031663a9059cbb868660006040516020015260405160e060020a63ffffffff8516028152600160a060020a0390921660048301526024820152604401602060405180830381600087803b1515610d6057600080fd5b6102c65a03f11515610d7157600080fd5b505050604051805190501515610bdb57fe5b60055481565b60075481565b60015433600160a060020a03908116911614610daa57600080fd5b6000546001547f343765429aea5a34b3ff6a3785a98a5abb2597aca87bfbb58632c173d585373a91600160a060020a039081169116604051600160a060020a039283168152911660208201526040908101905180910390a1600180546000805473ffffffffffffffffffffffffffffffffffffffff19908116600160a060020a03841617909155169055565b60035460009033600160a060020a03908116911614610e5157fe5b60045460a060020a900460ff1615610e6857600080fd5b6004805474ff0000000000000000000000000000000000000000191660a060020a1790557f6985a02210a168e66602d3235cb6db0e70f92b3ba4d376a33c0f3d9434bff62560405160405180910390a150600190565b60005433600160a060020a03908116911614610ed657fe5b600254600160a060020a0316631608f18f8260405160e060020a63ffffffff84160281529015156004820152602401600060405180830381600087803b1515610a1857600080fd5b60035460009033600160a060020a03908116911614610f3957fe5b50600160a060020a03166000908152600b60205260409020805460ff19169055600190565b600054600160a060020a031681565b68022b1c8c1227a0000081565b60095481565b60045433600160a060020a03908116911614610f9b57600080fd5b6003546004547fbe4cc281795971a471c980e842627a7f1ea3892ddfce8c5b6357cd2611c1973291600160a060020a039081169116604051600160a060020a039283168152911660208201526040908101905180910390a1600480546003805473ffffffffffffffffffffffffffffffffffffffff19908116600160a060020a03841617909155169055565b600154600160a060020a031681565b640ba43b740081565b60035460009033600160a060020a0390811691161461105a57fe5b50600160a060020a03166000908152600b60205260409020805460ff1916600190811790915590565b60035433600160a060020a0390811691161461109b57fe5b600354600160a060020a03828116911614156110b657600080fd5b6004805473ffffffffffffffffffffffffffffffffffffffff1916600160a060020a0392909216919091179055565b60005433600160a060020a039081169116146110fd57fe5b600054600160a060020a038281169116141561111857600080fd5b6001805473ffffffffffffffffffffffffffffffffffffffff1916600160a060020a0392909216919091179055565b600254600160a060020a031681565b6000828202831580611172575082848281151561116f57fe5b04145b151561117a57fe5b9392505050565b60008282018381101561117a57fe5b6002546000908190600160a060020a033081169116638da5cb5b83604051602001526040518163ffffffff1660e060020a028152600401602060405180830381600087803b15156111e057600080fd5b6102c65a03f115156111f157600080fd5b50505060405180519050600160a060020a031614151561120d57fe5b3460065461121d60095483611181565b1061122a5742600a016008555b3460055461123a60095483611181565b111561124257fe5b640ba43b74003a111561125157fe5b61125a34610990565b600a54909350600160a060020a03163480156108fc0290604051600060405180830381858888f19350505050151561128e57fe5b61129a60095434611181565b600955600254600160a060020a031663867904b4338560405160e060020a63ffffffff8516028152600160a060020a0390921660048301526024820152604401600060405180830381600087803b15156112f357600080fd5b6102c65a03f1151561130457600080fd5b5050600254600a54600160a060020a03918216925063867904b491168560405160e060020a63ffffffff8516028152600160a060020a0390921660048301526024820152604401600060405180830381600087803b151561136457600080fd5b6102c65a03f1151561137557600080fd5b505050611381836113df565b33600160a060020a03167f5f7675b09617d2c9fa4fd13058ee5877a9538f626b0308816736e83748a45040348560405191825260208201526040908101905180910390a2509092915050565b6000818310156113d957fe5b50900390565b6002548190600160a060020a03166370a082313360006040516020015260405160e060020a63ffffffff8416028152600160a060020a039091166004820152602401602060405180830381600087803b151561143a57600080fd5b6102c65a03f1151561144b57600080fd5b50505060405180519050141561146557600c805460010190555b505600a165627a7a723058205b65165a8a7f79ea1e7332f275651fe32657ebdc8537c6c97277a3327b57fbc70029606060405260408051908101604052600981527f546f6b656e20302e310000000000000000000000000000000000000000000000602082015260029080516200004d929160200190620001ff565b50602060405190810160405260008152600390805162000072929160200190620001ff565b50602060405190810160405260008152600490805162000097929160200190620001ff565b506005805460ff19169055600060065560408051908101604052600381527f302e33000000000000000000000000000000000000000000000000000000000060208201526009908051620000f0929160200190620001ff565b50600a805460ff1916600117905534156200010a57600080fd5b60405162001086380380620010868339810160405280805182019190602001805182019190602001805160008054600160a060020a03191633600160a060020a03161781559092508491508390839083511180156200016a575060008251115b15156200017657600080fd5b60038380516200018b929160200190620001ff565b506004828051620001a1929160200190620001ff565b506005805460ff191660ff92909216919091179055507ff4cd1f8571e8d9c97ffcb81558807ab73f9803d54de5da6a0420593c82a4a9f0905030604051600160a060020a03909116815260200160405180910390a1505050620002a4565b828054600181600116156101000203166002900490600052602060002090601f016020900481019282601f106200024257805160ff191683800117855562000272565b8280016001018555821562000272579182015b828111156200027257825182559160200191906001019062000255565b506200028092915062000284565b5090565b620002a191905b808211156200028057600081556001016200028b565b90565b610dd280620002b46000396000f3006060604052361561010f5763ffffffff7c010000000000000000000000000000000000000000000000000000000060003504166306fdde038114610114578063095ea7b31461019e5780631608f18f146101d457806318160ddd146101ee57806323b872dd14610213578063313ce5671461023b57806354fd4d50146102645780635a3b7e42146102775780635e35359e1461028a57806370a08231146102b257806379ba5097146102d1578063867904b4146102e45780638da5cb5b1461030657806395d89b4114610335578063a24835d114610348578063a9059cbb1461036a578063bef97c871461038c578063d4ee1d901461039f578063dd62ed3e146103b2578063f2fde38b146103d7575b600080fd5b341561011f57600080fd5b6101276103f6565b60405160208082528190810183818151815260200191508051906020019080838360005b8381101561016357808201518382015260200161014b565b50505050905090810190601f1680156101905780820380516001836020036101000a031916815260200191505b509250505060405180910390f35b34156101a957600080fd5b6101c0600160a060020a0360043516602435610494565b604051901515815260200160405180910390f35b34156101df57600080fd5b6101ec6004351515610551565b005b34156101f957600080fd5b61020161057b565b60405190815260200160405180910390f35b341561021e57600080fd5b6101c0600160a060020a0360043581169060243516604435610581565b341561024657600080fd5b61024e6105af565b60405160ff909116815260200160405180910390f35b341561026f57600080fd5b6101276105b8565b341561028257600080fd5b610127610623565b341561029557600080fd5b6101ec600160a060020a036004358116906024351660443561068e565b34156102bd57600080fd5b610201600160a060020a0360043516610795565b34156102dc57600080fd5b6101ec6107a7565b34156102ef57600080fd5b6101ec600160a060020a036004351660243561084e565b341561031157600080fd5b61031961095c565b604051600160a060020a03909116815260200160405180910390f35b341561034057600080fd5b61012761096b565b341561035357600080fd5b6101ec600160a060020a03600435166024356109d6565b341561037557600080fd5b6101c0600160a060020a0360043516602435610ac1565b341561039757600080fd5b6101c0610aed565b34156103aa57600080fd5b610319610af6565b34156103bd57600080fd5b610201600160a060020a0360043581169060243516610b05565b34156103e257600080fd5b6101ec600160a060020a0360043516610b22565b60038054600181600116156101000203166002900480601f01602080910402602001604051908101604052809291908181526020018280546001816001161561010002031660029004801561048c5780601f106104615761010080835404028352916020019161048c565b820191906000526020600020905b81548152906001019060200180831161046f57829003601f168201915b505050505081565b600082600160a060020a03811615156104ac57600080fd5b8215806104dc5750600160a060020a03338116600090815260086020908152604080832093881683529290522054155b15156104e757600080fd5b600160a060020a03338116600081815260086020908152604080832094891680845294909152908190208690557f8c5be1e5ebec7d5bd14f71427d1e84f3dd0314c0f7b2291e5b200ac8c7c3b9259086905190815260200160405180910390a35060019392505050565b60005433600160a060020a0390811691161461056957fe5b600a805460ff19169115919091179055565b60065481565b600a5460009060ff16151561059257fe5b61059d848484610b84565b15156105a557fe5b5060019392505050565b60055460ff1681565b60098054600181600116156101000203166002900480601f01602080910402602001604051908101604052809291908181526020018280546001816001161561010002031660029004801561048c5780601f106104615761010080835404028352916020019161048c565b60028054600181600116156101000203166002900480601f01602080910402602001604051908101604052809291908181526020018280546001816001161561010002031660029004801561048c5780601f106104615761010080835404028352916020019161048c565b60005433600160a060020a039081169116146106a657fe5b82600160a060020a03811615156106bc57600080fd5b82600160a060020a03811615156106d257600080fd5b8330600160a060020a031681600160a060020a0316141515156106f457600080fd5b85600160a060020a031663a9059cbb86866000604051602001526040517c010000000000000000000000000000000000000000000000000000000063ffffffff8516028152600160a060020a0390921660048301526024820152604401602060405180830381600087803b151561076a57600080fd5b6102c65a03f1151561077b57600080fd5b50505060405180519050151561078d57fe5b505050505050565b60076020526000908152604090205481565b60015433600160a060020a039081169116146107c257600080fd5b6000546001547f343765429aea5a34b3ff6a3785a98a5abb2597aca87bfbb58632c173d585373a91600160a060020a039081169116604051600160a060020a039283168152911660208201526040908101905180910390a1600180546000805473ffffffffffffffffffffffffffffffffffffffff19908116600160a060020a03841617909155169055565b60005433600160a060020a0390811691161461086657fe5b81600160a060020a038116151561087c57600080fd5b8230600160a060020a031681600160a060020a03161415151561089e57600080fd5b6108aa60065484610ca4565b600655600160a060020a0384166000908152600760205260409020546108d09084610ca4565b600160a060020a03851660009081526007602052604090819020919091557f9386c90217c323f58030f9dadcbc938f807a940f4ff41cd4cead9562f5da7dc39084905190815260200160405180910390a183600160a060020a031630600160a060020a0316600080516020610d878339815191528560405190815260200160405180910390a350505050565b600054600160a060020a031681565b60048054600181600116156101000203166002900480601f01602080910402602001604051908101604052809291908181526020018280546001816001161561010002031660029004801561048c5780601f106104615761010080835404028352916020019161048c565b81600160a060020a031633600160a060020a03161480610a04575060005433600160a060020a039081169116145b1515610a0f57600080fd5b600160a060020a038216600090815260076020526040902054610a329082610cba565b600160a060020a038316600090815260076020526040902055600654610a589082610cba565b600655600160a060020a03308116908316600080516020610d878339815191528360405190815260200160405180910390a37f9a1b418bc061a5d80270261562e6986a35d995f8051145f277be16103abd34538160405190815260200160405180910390a15050565b600a5460009060ff161515610ad257fe5b610adc8383610ccc565b1515610ae457fe5b50600192915050565b600a5460ff1681565b600154600160a060020a031681565b600860209081526000928352604080842090915290825290205481565b60005433600160a060020a03908116911614610b3a57fe5b600054600160a060020a0382811691161415610b5557600080fd5b6001805473ffffffffffffffffffffffffffffffffffffffff1916600160a060020a0392909216919091179055565b600083600160a060020a0381161515610b9c57600080fd5b83600160a060020a0381161515610bb257600080fd5b600160a060020a0380871660009081526008602090815260408083203390941683529290522054610be39085610cba565b600160a060020a038088166000818152600860209081526040808320339095168352938152838220949094559081526007909252902054610c249085610cba565b600160a060020a038088166000908152600760205260408082209390935590871681522054610c539085610ca4565b600160a060020a0380871660008181526007602052604090819020939093559190881690600080516020610d878339815191529087905190815260200160405180910390a350600195945050505050565b600082820183811015610cb357fe5b9392505050565b600081831015610cc657fe5b50900390565b600082600160a060020a0381161515610ce457600080fd5b600160a060020a033316600090815260076020526040902054610d079084610cba565b600160a060020a033381166000908152600760205260408082209390935590861681522054610d369084610ca4565b600160a060020a038086166000818152600760205260409081902093909355913390911690600080516020610d878339815191529086905190815260200160405180910390a350600193925050505600ddf252ad1be2c89b69c2b068fc378daa952ba7f163c4a11628f55a4df523b3efa165627a7a7230582001c29629aa3789d3566fa9b2c5953cf1b4ba8ef63948fd00a292b524a5aaac730029",
  "source": "pragma solidity ^0.4.15;\nimport '../CrowdsaleController.sol';\n/*\n    Test crowdsale controller with start time < now < end time\n*/\ncontract TestCrowdsaleController is CrowdsaleController {\n    function TestCrowdsaleController(\n        uint256 _startTime,\n        address _beneficiary,\n        uint256 _startTimeOverride)\n        CrowdsaleController(_startTime, _beneficiary)\n    {\n        startTime = _startTimeOverride;\n        endTime = startTime + DURATION;\n    }\n}\n",
  "sourcePath": "/Users/tikonoff/projects/rootcore/contracts/helpers/TestCrowdsaleController.sol",
  "schemaVersion": "1.0.0",
  "updatedAt": "2018-01-29T02:36:04.869Z"
}